:020000040000fa
:080000000002040000000000f2
:020000040000fa
:040008006803000089
:020000040000fa
:04000c006803000085
:020000040000fa
:040010006803000081
:020000040000fa
:04001400680300007d
:020000040000fa
:040018006803000079
:020000040000fa
:04001c006803000075
:020000040000fa
:040020006803000071
:020000040000fa
:04002400680300006d
:020000040000fa
:040028006803000069
:020000040000fa
:04002c00e8020000e6
:020000040000fa
:040030006803000061
:020000040000fa
:04003400680300005d
:020000040000fa
:040038006803000059
:020000040000fa
:04003c006803000055
:020000040000fa
:040040006803000051
:020000040000fa
:04004400c8020000ee
:020000040000fa
:040048006803000049
:020000040000fa
:04004c006803000045
:020000040000fa
:040050006803000041
:020000040000fa
:04005400680300003d
:020000040000fa
:040058006803000039
:020000040000fa
:04005c006803000035
:020000040000fa
:040060006803000031
:020000040000fa
:04006400680300002d
:020000040000fa
:040068006803000029
:020000040000fa
:04006c006803000025
:020000040000fa
:040070006803000021
:020000040000fa
:04007400680300001d
:020000040000fa
:040078006803000019
:020000040000fa
:04007c006803000015
:020000040000fa
:040080006803000011
:020000040000fa
:04008400680300000d
:020000040000fa
:040088006803000009
:020000040000fa
:04008c006803000005
:020000040000fa
:040090006803000001
:020000040000fa
:0400940068030000fd
:020000040000fa
:0400980068030000f9
:020000040000fa
:04009c0068030000f5
:020000040000fa
:0400a00068030000f1
:020000040000fa
:0400a40068030000ed
:020000040000fa
:0400a80068030000e9
:020000040000fa
:0400ac0068030000e5
:020000040000fa
:0400b00068030000e1
:020000040000fa
:0400b40068030000dd
:020000040000fa
:0400b80068030000d9
:020000040000fa
:0400bc0068030000d5
:020000040000fa
:0400c00068030000d1
:020000040000fa
:0400c40068030000cd
:020000040000fa
:0400c80068030000c9
:020000040000fa
:0400cc0068030000c5
:020000040000fa
:0400d00068030000c1
:020000040000fa
:0400d40068030000bd
:020000040000fa
:0400d80068030000b9
:020000040000fa
:0400dc0068030000b5
:020000040000fa
:0400e00068030000b1
:020000040000fa
:0400e40068030000ad
:020000040000fa
:0400e80068030000a9
:020000040000fa
:0400ec0068030000a5
:020000040000fa
:0400f00068030000a1
:020000040000fa
:0400f400680300009d
:020000040000fa
:0400f8006803000099
:020000040000fa
:0400fc006803000095
:020000040000fa
:040100006803000090
:020000040000fa
:04010400680300008c
:020000040000fa
:040108006803000088
:020000040000fa
:04010c006803000084
:020000040000fa
:040110006803000080
:020000040000fa
:04011400680300007c
:020000040000fa
:040118006803000078
:020000040000fa
:04011c006803000074
:020000040000fa
:040120006803000070
:020000040000fa
:04012400680300006c
:020000040000fa
:040128006803000068
:020000040000fa
:04012c006803000064
:020000040000fa
:040130006803000060
:020000040000fa
:04013400680300005c
:020000040000fa
:040138006803000058
:020000040000fa
:04013c006803000054
:020000040000fa
:040140006803000050
:020000040000fa
:04014400680300004c
:020000040000fa
:040148006803000048
:020000040000fa
:040208006803000087
:020000040000fa
:04020c006803000083
:020000040000fa
:04021000680300007f
:020000040000fa
:04021400680300007b
:020000040000fa
:040218006803000077
:020000040000fa
:04021c006803000073
:020000040000fa
:04022000680300006f
:020000040000fa
:04022400680300006b
:020000040000fa
:040228006803000067
:020000040000fa
:04022c00e8020000e4
:020000040000fa
:04023000680300005f
:020000040000fa
:04023400680300005b
:020000040000fa
:040238006803000057
:020000040000fa
:04023c006803000053
:020000040000fa
:04024000680300004f
:020000040000fa
:04024400c8020000ec
:020000040000fa
:040248006803000047
:020000040000fa
:04024c006803000043
:020000040000fa
:04025000680300003f
:020000040000fa
:04025400680300003b
:020000040000fa
:040258006803000037
:020000040000fa
:04025c006803000033
:020000040000fa
:04026000680300002f
:020000040000fa
:04026400680300002b
:020000040000fa
:040268006803000027
:020000040000fa
:04026c006803000023
:020000040000fa
:04027000680300001f
:020000040000fa
:04027400680300001b
:020000040000fa
:040278006803000017
:020000040000fa
:04027c006803000013
:020000040000fa
:04028000680300000f
:020000040000fa
:04028400680300000b
:020000040000fa
:040288006803000007
:020000040000fa
:04028c006803000003
:020000040000fa
:0402900068030000ff
:020000040000fa
:0402940068030000fb
:020000040000fa
:0402980068030000f7
:020000040000fa
:04029c0068030000f3
:020000040000fa
:0402a00068030000ef
:020000040000fa
:0402a40068030000eb
:020000040000fa
:0402a80068030000e7
:020000040000fa
:0402ac0068030000e3
:020000040000fa
:0402b00068030000df
:020000040000fa
:0402b40068030000db
:020000040000fa
:0402b80068030000d7
:020000040000fa
:0402bc0068030000d3
:020000040000fa
:0402c00068030000cf
:020000040000fa
:0402c40068030000cb
:020000040000fa
:0402c80068030000c7
:020000040000fa
:0402cc0068030000c3
:020000040000fa
:0402d00068030000bf
:020000040000fa
:0402d40068030000bb
:020000040000fa
:0402d80068030000b7
:020000040000fa
:0402dc0068030000b3
:020000040000fa
:0402e00068030000af
:020000040000fa
:0402e40068030000ab
:020000040000fa
:0402e80068030000a7
:020000040000fa
:0402ec0068030000a3
:020000040000fa
:0402f000680300009f
:020000040000fa
:0402f400680300009b
:020000040000fa
:0402f8006803000097
:020000040000fa
:0402fc006803000093
:020000040000fa
:04030000680300008e
:020000040000fa
:04030400680300008a
:020000040000fa
:040308006803000086
:020000040000fa
:04030c006803000082
:020000040000fa
:04031000680300007e
:020000040000fa
:04031400680300007a
:020000040000fa
:040318006803000076
:020000040000fa
:04031c006803000072
:020000040000fa
:04032000680300006e
:020000040000fa
:04032400680300006a
:020000040000fa
:040328006803000066
:020000040000fa
:04032c006803000062
:020000040000fa
:04033000680300005e
:020000040000fa
:04033400680300005a
:020000040000fa
:040338006803000056
:020000040000fa
:04033c006803000052
:020000040000fa
:04034000680300004e
:020000040000fa
:04034400680300004a
:020000040000fa
:040348006803000046
:020000040000fa
:100400008f8220000e7f22000e0188000000000075
:10041000000020000000e000020032000001200087
:100420002002880014000700ab0007000000e00075
:1004300003003a004057200001002000020037006e
:100440000000200001002000810f70000100320038
:1004500014000700000020000000e000020032004d
:100460000000020000000000040402000000000080
:100470000040da000000fe004440a9000000200017
:100480000000e0000300320000002000a00188000e
:100490004440a800000006008a1f78008b1f7800e7
:1004a0000000060091018800800478000000eb0045
:1004b0001a003700e284440032a0b4009905ba0063
:1004c000e284440032a0b4009906ba00e2844400f9
:1004d00032a0b4000006eb00476fde00fd07b2005b
:1004e000636ce10003003a00ebff07000000eb0043
:1004f0000a003700606ce10004003a00005deb0088
:100500008b05e900fdff3e00040037006168e10053
:10051000010032000086eb000b00070019c7ba008b
:100520001905ba000e04e00003003a000a00e000da
:10053000e0ff3a0000000600fe07b2009e018800be
:100540008a047800f5ff3700395dba008b05e900b1
:100550000c003200295dba008b05e900080032006a
:100560000c00e00003003a00e284440032a0b40032
:10057000f5ff370019ddba008b05e900faff3a00f4
:100580008904e800e184440032a0b40000000600c1
:10059000809fbe003400f80000002000a001880009
:1005a0000000fa0084e0a9000040800011408000b3
:1005b00061004000e0804800004088001140880051
:1005c0000080fa003400f9004f00be000040060031
:1005d0003600f800809fbe00829fbe00849fbe0050
:1005e000869fbe00889fbe003400f80000002000f7
:1005f000a00188000400fa008420a900000a8000fd
:100600006103b800600880000000e8006101b800e4
:100610000040800011408000009ab9000402780078
:10062000028cb90088027800050242000010b80070
:100630000102420084007800001f430001974b0034
:1006400040408000514080003e011000ae81180003
:100650000200be00c0408800d1408800c240800037
:10066000d3408000d007200001002000800f5100ff
:10067000818f59000d0036001e01be0042408800e7
:1006800053408800604080000000e00006003a000f
:1006900010002000604088004040800051408000f1
:1006a00021000700010037000c28ef000080fa004d
:1006b0003400f9004f04be004f03be004f02be00dd
:1006c0004f01be004f00be003600f900004006009a
:1006d0000040da000000fe000000050002000700f4
:1006e0000400be00000006006022b80006022000e0
:1006f0000000d0008180d2000482d2008582d20026
:100700000000a0000202520083825a000300310060
:100710000202420083824a000000a1000603e900b1
:08072000f3ff3a00000006009f
:020000040000fa
:100728000400fa00008fbe008040800091408000e5
:1007380000017800c211dd00c28120000281410061
:100748003e1978002e11780061004000e0804800d2
:10075800804088009140880080408000914080005f
:100768003200200003002000daff070080408800e4
:10077800914088000080fa00000006000400fa009a
:10078800a0408000b1408000c201dd00c28120008d
:1007980002814100321f7800221778006100400072
:1007a800e0804800a0408800b1408800a040800058
:1007b800b14080003200200003002000c5ff070080
:1007c800a0408800b14088001e00be000080fa00ea
:1007d800000006000000fa00213a8000f08f2f0088
:1007e80000806000203a8800f0ff29006019880026
:1007f800610007009d0007000080fa000000060065
:100808001000fa00f3ff07006000b800008fbe0078
:100818006000b80020079800310798006000b80011
:1008280040079800510798006000b80060079800da
:1008380071079800004080001140800042422f005c
:100848000289b900020178006002b90084017800c9
:100858000301410043422f000300b8000101410099
:1008680082007800320880008001eb00000041001f
:100878008180490020079800310798008040800057
:1008880091408000c200dd00c0812000008040004f
:100898001001be006207980073079800804080002e
:1008a8009140800062004000e08048003200200053
:1008b8000300200087ff0700c200dd00c081200080
:1008c800008040001001be004207980053079800be
:1008d8004e019000de0190006e009000fe00900036
:1008e800000151008181590010a12700010020005a
:1008f800800f5100818f590003003e004e01900087
:10090800de019000028fbe002e009000be00900015
:100918003e015000ae81580080842e001100200056
:10092800800f5100818f5900030036008038210064
:1009380048000700bfff3700803e20004500070041
:10094800bcff37000400fa001007980010002000d0
:10095800000f7800020037006b0007001e0fe80048
:100968001e0090009e007800808f5000faff34002f
:100978000080fa00000006000000fa00c8c2a900c2
:10098800113a8000f00b2000008160006004200014
:10099800710520002374200080497800814978007f
:1009a800824978003136800000fe2f000080600008
:1009b8002001b300303688007134800000fe2f001b
:1009c800008060000030a00070348800103a800079
:1009d800000178000260a00060042000710520007a
:1009e8002374200080497800814978008249780082
:1009f80013e1a90091088000f0fc2f00008060003e
:100a08000040a0009008880012c1a9001221a90086
:100a18000a21ef00f0c32900700888008421ef0044
:100a2800803e2000100c8800803e2000000c8800ca
:100a38008461a800210c800080ff2f0000806000e6
:100a48006000b300200c880013e1a8000080fa00c1
:100a5800000006000200fa00000f78001e0078006f
:100a6800000c88000080fa00000006000000fa0070
:100a78004221ef0042e1a800110a800080ff2f0008
:100a8800008060000000a000100a88008420a900ef
:100a98009420a800c902a8006ac0a80011e1a90012
:100aa8008108800000032000010070008008880091
:100ab80010c1a90011a1a9001021a9000621ef0069
:100ac80030422f00600888006ac0a80084e0a900ae
:100ad80094e0a80011e1a8000080fa0000000600d8
:020000040000fa
:100ae8001c0800000c0000000000000000080000c6
:0c0af8001c0000000000000000000000d6
:020000040000fa
:100b0400390609000000000000000600793e0900d3
:080b14000000000000000600d3
:020000040000fa
:020000040001f9
:0457f8000ff90000a5
:020000040000fa
:020000040001f9
:0457fc007f3f0000eb
:00000001FF
